{
  "contractName": "SmartContract",
  "abi": [
    {
      "inputs": [],
      "stateMutability": "nonpayable",
      "type": "constructor"
    },
    {
      "anonymous": false,
      "inputs": [
        {
          "indexed": true,
          "internalType": "address",
          "name": "owner",
          "type": "address"
        },
        {
          "indexed": true,
          "internalType": "address",
          "name": "approved",
          "type": "address"
        },
        {
          "indexed": true,
          "internalType": "uint256",
          "name": "tokenId",
          "type": "uint256"
        }
      ],
      "name": "Approval",
      "type": "event"
    },
    {
      "anonymous": false,
      "inputs": [
        {
          "indexed": true,
          "internalType": "address",
          "name": "owner",
          "type": "address"
        },
        {
          "indexed": true,
          "internalType": "address",
          "name": "operator",
          "type": "address"
        },
        {
          "indexed": false,
          "internalType": "bool",
          "name": "approved",
          "type": "bool"
        }
      ],
      "name": "ApprovalForAll",
      "type": "event"
    },
    {
      "anonymous": false,
      "inputs": [
        {
          "indexed": true,
          "internalType": "address",
          "name": "previousOwner",
          "type": "address"
        },
        {
          "indexed": true,
          "internalType": "address",
          "name": "newOwner",
          "type": "address"
        }
      ],
      "name": "OwnershipTransferred",
      "type": "event"
    },
    {
      "anonymous": false,
      "inputs": [
        {
          "indexed": true,
          "internalType": "address",
          "name": "from",
          "type": "address"
        },
        {
          "indexed": true,
          "internalType": "address",
          "name": "to",
          "type": "address"
        },
        {
          "indexed": true,
          "internalType": "uint256",
          "name": "tokenId",
          "type": "uint256"
        }
      ],
      "name": "Transfer",
      "type": "event"
    },
    {
      "inputs": [
        {
          "internalType": "address",
          "name": "to",
          "type": "address"
        },
        {
          "internalType": "uint256",
          "name": "tokenId",
          "type": "uint256"
        }
      ],
      "name": "approve",
      "outputs": [],
      "stateMutability": "nonpayable",
      "type": "function"
    },
    {
      "inputs": [
        {
          "internalType": "address",
          "name": "owner",
          "type": "address"
        }
      ],
      "name": "balanceOf",
      "outputs": [
        {
          "internalType": "uint256",
          "name": "",
          "type": "uint256"
        }
      ],
      "stateMutability": "view",
      "type": "function",
      "constant": true
    },
    {
      "inputs": [
        {
          "internalType": "uint256",
          "name": "tokenId",
          "type": "uint256"
        }
      ],
      "name": "getApproved",
      "outputs": [
        {
          "internalType": "address",
          "name": "",
          "type": "address"
        }
      ],
      "stateMutability": "view",
      "type": "function",
      "constant": true
    },
    {
      "inputs": [
        {
          "internalType": "address",
          "name": "owner",
          "type": "address"
        },
        {
          "internalType": "address",
          "name": "operator",
          "type": "address"
        }
      ],
      "name": "isApprovedForAll",
      "outputs": [
        {
          "internalType": "bool",
          "name": "",
          "type": "bool"
        }
      ],
      "stateMutability": "view",
      "type": "function",
      "constant": true
    },
    {
      "inputs": [],
      "name": "name",
      "outputs": [
        {
          "internalType": "string",
          "name": "",
          "type": "string"
        }
      ],
      "stateMutability": "view",
      "type": "function",
      "constant": true
    },
    {
      "inputs": [],
      "name": "owner",
      "outputs": [
        {
          "internalType": "address",
          "name": "",
          "type": "address"
        }
      ],
      "stateMutability": "view",
      "type": "function",
      "constant": true
    },
    {
      "inputs": [
        {
          "internalType": "uint256",
          "name": "tokenId",
          "type": "uint256"
        }
      ],
      "name": "ownerOf",
      "outputs": [
        {
          "internalType": "address",
          "name": "",
          "type": "address"
        }
      ],
      "stateMutability": "view",
      "type": "function",
      "constant": true
    },
    {
      "inputs": [],
      "name": "renounceOwnership",
      "outputs": [],
      "stateMutability": "nonpayable",
      "type": "function"
    },
    {
      "inputs": [
        {
          "internalType": "address",
          "name": "from",
          "type": "address"
        },
        {
          "internalType": "address",
          "name": "to",
          "type": "address"
        },
        {
          "internalType": "uint256",
          "name": "tokenId",
          "type": "uint256"
        }
      ],
      "name": "safeTransferFrom",
      "outputs": [],
      "stateMutability": "nonpayable",
      "type": "function"
    },
    {
      "inputs": [
        {
          "internalType": "address",
          "name": "from",
          "type": "address"
        },
        {
          "internalType": "address",
          "name": "to",
          "type": "address"
        },
        {
          "internalType": "uint256",
          "name": "tokenId",
          "type": "uint256"
        },
        {
          "internalType": "bytes",
          "name": "data",
          "type": "bytes"
        }
      ],
      "name": "safeTransferFrom",
      "outputs": [],
      "stateMutability": "nonpayable",
      "type": "function"
    },
    {
      "inputs": [
        {
          "internalType": "address",
          "name": "operator",
          "type": "address"
        },
        {
          "internalType": "bool",
          "name": "approved",
          "type": "bool"
        }
      ],
      "name": "setApprovalForAll",
      "outputs": [],
      "stateMutability": "nonpayable",
      "type": "function"
    },
    {
      "inputs": [
        {
          "internalType": "bytes4",
          "name": "interfaceId",
          "type": "bytes4"
        }
      ],
      "name": "supportsInterface",
      "outputs": [
        {
          "internalType": "bool",
          "name": "",
          "type": "bool"
        }
      ],
      "stateMutability": "view",
      "type": "function",
      "constant": true
    },
    {
      "inputs": [],
      "name": "symbol",
      "outputs": [
        {
          "internalType": "string",
          "name": "",
          "type": "string"
        }
      ],
      "stateMutability": "view",
      "type": "function",
      "constant": true
    },
    {
      "inputs": [
        {
          "internalType": "address",
          "name": "from",
          "type": "address"
        },
        {
          "internalType": "address",
          "name": "to",
          "type": "address"
        },
        {
          "internalType": "uint256",
          "name": "tokenId",
          "type": "uint256"
        }
      ],
      "name": "transferFrom",
      "outputs": [],
      "stateMutability": "nonpayable",
      "type": "function"
    },
    {
      "inputs": [
        {
          "internalType": "address",
          "name": "newOwner",
          "type": "address"
        }
      ],
      "name": "transferOwnership",
      "outputs": [],
      "stateMutability": "nonpayable",
      "type": "function"
    },
    {
      "inputs": [
        {
          "internalType": "uint256",
          "name": "tokenId",
          "type": "uint256"
        }
      ],
      "name": "tokenURI",
      "outputs": [
        {
          "internalType": "string",
          "name": "",
          "type": "string"
        }
      ],
      "stateMutability": "view",
      "type": "function",
      "constant": true
    },
    {
      "inputs": [],
      "name": "getAllTokens",
      "outputs": [
        {
          "components": [
            {
              "internalType": "uint256",
              "name": "id",
              "type": "uint256"
            },
            {
              "internalType": "string",
              "name": "uri",
              "type": "string"
            }
          ],
          "internalType": "struct SmartContract.RenderToken[]",
          "name": "",
          "type": "tuple[]"
        }
      ],
      "stateMutability": "view",
      "type": "function",
      "constant": true
    },
    {
      "inputs": [
        {
          "internalType": "address",
          "name": "recipient",
          "type": "address"
        },
        {
          "internalType": "string",
          "name": "uri",
          "type": "string"
        }
      ],
      "name": "mint",
      "outputs": [
        {
          "internalType": "uint256",
          "name": "",
          "type": "uint256"
        }
      ],
      "stateMutability": "nonpayable",
      "type": "function"
    }
  ],
  "bytecode": "0x60806040523480156200001157600080fd5b50604080518082018252600e81526d14db585c9d0810dbdb9d1c9858dd60921b602080830191825283518085019094526002845261534360f01b9084015281519192916200006291600091620000f1565b50805162000078906001906020840190620000f1565b505050620000956200008f6200009b60201b60201c565b6200009f565b620001d4565b3390565b600680546001600160a01b038381166001600160a01b0319831681179093556040519116919082907f8be0079c531659141344cd1fd0a4f28419497f9722a3daafe3b4186f6b6457e090600090a35050565b828054620000ff9062000197565b90600052602060002090601f0160209004810192826200012357600085556200016e565b82601f106200013e57805160ff19168380011785556200016e565b828001600101855582156200016e579182015b828111156200016e57825182559160200191906001019062000151565b506200017c92915062000180565b5090565b5b808211156200017c576000815560010162000181565b600281046001821680620001ac57607f821691505b60208210811415620001ce57634e487b7160e01b600052602260045260246000fd5b50919050565b6116d780620001e46000396000f3fe608060405234801561001057600080fd5b50600436106101165760003560e01c8063715018a6116100a2578063b88d4fde11610071578063b88d4fde14610227578063c87b56dd1461023a578063d0def5211461024d578063e985e9c514610260578063f2fde38b1461027357610116565b8063715018a6146101fc5780638da5cb5b1461020457806395d89b411461020c578063a22cb4651461021457610116565b806323b872dd116100e957806323b872dd1461018e5780632a5c792a146101a157806342842e0e146101b65780636352211e146101c957806370a08231146101dc57610116565b806301ffc9a71461011b57806306fdde0314610144578063081812fc14610159578063095ea7b314610179575b600080fd5b61012e6101293660046110f1565b610286565b60405161013b919061124e565b60405180910390f35b61014c6102ce565b60405161013b9190611259565b61016c610167366004611129565b610360565b60405161013b919061118c565b61018c6101873660046110c8565b610387565b005b61018c61019c366004610f7b565b610428565b6101a9610460565b60405161013b91906111dd565b61018c6101c4366004610f7b565b610566565b61016c6101d7366004611129565b610581565b6101ef6101ea366004610f2f565b6105b6565b60405161013b91906115d1565b61018c6105fa565b61016c61060e565b61014c61061d565b61018c61022236600461102f565b61062c565b61018c610235366004610fb6565b610642565b61014c610248366004611129565b610681565b6101ef61025b366004611069565b610734565b61012e61026e366004610f49565b610768565b61018c610281366004610f2f565b610796565b60006001600160e01b031982166380ac58cd60e01b14806102b757506001600160e01b03198216635b5e139f60e01b145b806102c657506102c6826107d0565b90505b919050565b6060600080546102dd90611609565b80601f016020809104026020016040519081016040528092919081815260200182805461030990611609565b80156103565780601f1061032b57610100808354040283529160200191610356565b820191906000526020600020905b81548152906001019060200180831161033957829003601f168201915b5050505050905090565b600061036b826107e9565b506000908152600460205260409020546001600160a01b031690565b600061039282610581565b9050806001600160a01b0316836001600160a01b031614156103cf5760405162461bcd60e51b81526004016103c690611542565b60405180910390fd5b806001600160a01b03166103e161080e565b6001600160a01b031614806103fd57506103fd8161026e61080e565b6104195760405162461bcd60e51b81526004016103c690611444565b6104238383610812565b505050565b61043961043361080e565b82610880565b6104555760405162461bcd60e51b81526004016103c690611583565b6104238383836108df565b6060600061046e6007610a12565b90506000808267ffffffffffffffff81111561049a57634e487b7160e01b600052604160045260246000fd5b6040519080825280602002602001820160405280156104d357816020015b6104c0610df5565b8152602001906001900390816104b85790505b50905060005b8381101561055e576104ea83610a16565b1561053e5760006104fa84610681565b905060405180604001604052808581526020018281525083858151811061053157634e487b7160e01b600052603260045260246000fd5b6020026020010181905250505b8261054881611644565b935050808061055690611644565b9150506104d9565b509250505090565b61042383838360405180602001604052806000815250610642565b6000818152600260205260408120546001600160a01b0316806102c65760405162461bcd60e51b81526004016103c69061150b565b60006001600160a01b0382166105de5760405162461bcd60e51b81526004016103c6906113fb565b506001600160a01b031660009081526003602052604090205490565b610602610a33565b61060c6000610a72565b565b6006546001600160a01b031690565b6060600180546102dd90611609565b61063e61063761080e565b8383610ac4565b5050565b61065361064d61080e565b83610880565b61066f5760405162461bcd60e51b81526004016103c690611583565b61067b84848484610b67565b50505050565b606061068c82610a16565b61069557600080fd5b600082815260086020526040812080546106ae90611609565b80601f01602080910402602001604051908101604052809291908181526020018280546106da90611609565b80156107275780601f106106fc57610100808354040283529160200191610727565b820191906000526020600020905b81548152906001019060200180831161070a57829003601f168201915b5093979650505050505050565b6000806107416007610a12565b905061074d8482610b9a565b6107578184610c81565b6107616007610ca0565b9392505050565b6001600160a01b03918216600090815260056020908152604080832093909416825291909152205460ff1690565b61079e610a33565b6001600160a01b0381166107c45760405162461bcd60e51b81526004016103c6906112be565b6107cd81610a72565b50565b6001600160e01b031981166301ffc9a760e01b14919050565b6107f281610a16565b6107cd5760405162461bcd60e51b81526004016103c69061150b565b3390565b600081815260046020526040902080546001600160a01b0319166001600160a01b038416908117909155819061084782610581565b6001600160a01b03167f8c5be1e5ebec7d5bd14f71427d1e84f3dd0314c0f7b2291e5b200ac8c7c3b92560405160405180910390a45050565b60008061088c83610581565b9050806001600160a01b0316846001600160a01b031614806108b357506108b38185610768565b806108d75750836001600160a01b03166108cc84610360565b6001600160a01b0316145b949350505050565b826001600160a01b03166108f282610581565b6001600160a01b0316146109185760405162461bcd60e51b81526004016103c690611304565b6001600160a01b03821661093e5760405162461bcd60e51b81526004016103c690611380565b610949838383610423565b610954600082610812565b6001600160a01b038316600090815260036020526040812080546001929061097d9084906115f2565b90915550506001600160a01b03821660009081526003602052604081208054600192906109ab9084906115da565b909155505060008181526002602052604080822080546001600160a01b0319166001600160a01b0386811691821790925591518493918716917fddf252ad1be2c89b69c2b068fc378daa952ba7f163c4a11628f55a4df523b3ef91a4610423838383610423565b5490565b6000908152600260205260409020546001600160a01b0316151590565b610a3b61080e565b6001600160a01b0316610a4c61060e565b6001600160a01b03161461060c5760405162461bcd60e51b81526004016103c6906114d6565b600680546001600160a01b038381166001600160a01b0319831681179093556040519116919082907f8be0079c531659141344cd1fd0a4f28419497f9722a3daafe3b4186f6b6457e090600090a35050565b816001600160a01b0316836001600160a01b03161415610af65760405162461bcd60e51b81526004016103c6906113c4565b6001600160a01b0383811660008181526005602090815260408083209487168084529490915290819020805460ff1916851515179055517f17307eab39ab6107e8899845ad3d59bd9653f200f220920489ca2b5937696c3190610b5a90859061124e565b60405180910390a3505050565b610b728484846108df565b610b7e84848484610ca9565b61067b5760405162461bcd60e51b81526004016103c69061126c565b6001600160a01b038216610bc05760405162461bcd60e51b81526004016103c6906114a1565b610bc981610a16565b15610be65760405162461bcd60e51b81526004016103c690611349565b610bf260008383610423565b6001600160a01b0382166000908152600360205260408120805460019290610c1b9084906115da565b909155505060008181526002602052604080822080546001600160a01b0319166001600160a01b03861690811790915590518392907fddf252ad1be2c89b69c2b068fc378daa952ba7f163c4a11628f55a4df523b3ef908290a461063e60008383610423565b6000828152600860209081526040909120825161042392840190610e0f565b80546001019055565b6000610cbd846001600160a01b0316610dc4565b15610db957836001600160a01b031663150b7a02610cd961080e565b8786866040518563ffffffff1660e01b8152600401610cfb94939291906111a0565b602060405180830381600087803b158015610d1557600080fd5b505af1925050508015610d45575060408051601f3d908101601f19168201909252610d429181019061110d565b60015b610d9f573d808015610d73576040519150601f19603f3d011682016040523d82523d6000602084013e610d78565b606091505b508051610d975760405162461bcd60e51b81526004016103c69061126c565b805181602001fd5b6001600160e01b031916630a85bd0160e11b1490506108d7565b506001949350505050565b600080826001600160a01b0316803b806020016040519081016040528181526000908060200190933c511192915050565b604051806040016040528060008152602001606081525090565b828054610e1b90611609565b90600052602060002090601f016020900481019282610e3d5760008555610e83565b82601f10610e5657805160ff1916838001178555610e83565b82800160010185558215610e83579182015b82811115610e83578251825591602001919060010190610e68565b50610e8f929150610e93565b5090565b5b80821115610e8f5760008155600101610e94565b600067ffffffffffffffff80841115610ec357610ec3611675565b604051601f8501601f191681016020018281118282101715610ee757610ee7611675565b604052848152915081838501861015610eff57600080fd5b8484602083013760006020868301015250509392505050565b80356001600160a01b03811681146102c957600080fd5b600060208284031215610f40578081fd5b61076182610f18565b60008060408385031215610f5b578081fd5b610f6483610f18565b9150610f7260208401610f18565b90509250929050565b600080600060608486031215610f8f578081fd5b610f9884610f18565b9250610fa660208501610f18565b9150604084013590509250925092565b60008060008060808587031215610fcb578081fd5b610fd485610f18565b9350610fe260208601610f18565b925060408501359150606085013567ffffffffffffffff811115611004578182fd5b8501601f81018713611014578182fd5b61102387823560208401610ea8565b91505092959194509250565b60008060408385031215611041578182fd5b61104a83610f18565b91506020830135801515811461105e578182fd5b809150509250929050565b6000806040838503121561107b578182fd5b61108483610f18565b9150602083013567ffffffffffffffff81111561109f578182fd5b8301601f810185136110af578182fd5b6110be85823560208401610ea8565b9150509250929050565b600080604083850312156110da578182fd5b6110e383610f18565b946020939093013593505050565b600060208284031215611102578081fd5b81356107618161168b565b60006020828403121561111e578081fd5b81516107618161168b565b60006020828403121561113a578081fd5b5035919050565b60008151808452815b818110156111665760208185018101518683018201520161114a565b818111156111775782602083870101525b50601f01601f19169290920160200192915050565b6001600160a01b0391909116815260200190565b6001600160a01b03858116825284166020820152604081018390526080606082018190526000906111d390830184611141565b9695505050505050565b60208082528251828201819052600091906040908185019080840286018301878501865b8381101561124057888303603f1901855281518051845287015187840187905261122d87850182611141565b9588019593505090860190600101611201565b509098975050505050505050565b901515815260200190565b6000602082526107616020830184611141565b60208082526032908201527f4552433732313a207472616e7366657220746f206e6f6e20455243373231526560408201527131b2b4bb32b91034b6b83632b6b2b73a32b960711b606082015260800190565b60208082526026908201527f4f776e61626c653a206e6577206f776e657220697320746865207a65726f206160408201526564647265737360d01b606082015260800190565b60208082526025908201527f4552433732313a207472616e736665722066726f6d20696e636f72726563742060408201526437bbb732b960d91b606082015260800190565b6020808252601c908201527f4552433732313a20746f6b656e20616c7265616479206d696e74656400000000604082015260600190565b60208082526024908201527f4552433732313a207472616e7366657220746f20746865207a65726f206164646040820152637265737360e01b606082015260800190565b60208082526019908201527f4552433732313a20617070726f766520746f2063616c6c657200000000000000604082015260600190565b60208082526029908201527f4552433732313a2061646472657373207a65726f206973206e6f7420612076616040820152683634b21037bbb732b960b91b606082015260800190565b6020808252603e908201527f4552433732313a20617070726f76652063616c6c6572206973206e6f7420746f60408201527f6b656e206f776e6572206e6f7220617070726f76656420666f7220616c6c0000606082015260800190565b6020808252818101527f4552433732313a206d696e7420746f20746865207a65726f2061646472657373604082015260600190565b6020808252818101527f4f776e61626c653a2063616c6c6572206973206e6f7420746865206f776e6572604082015260600190565b60208082526018908201527f4552433732313a20696e76616c696420746f6b656e2049440000000000000000604082015260600190565b60208082526021908201527f4552433732313a20617070726f76616c20746f2063757272656e74206f776e656040820152603960f91b606082015260800190565b6020808252602e908201527f4552433732313a2063616c6c6572206973206e6f7420746f6b656e206f776e6560408201526d1c881b9bdc88185c1c1c9bdd995960921b606082015260800190565b90815260200190565b600082198211156115ed576115ed61165f565b500190565b6000828210156116045761160461165f565b500390565b60028104600182168061161d57607f821691505b6020821081141561163e57634e487b7160e01b600052602260045260246000fd5b50919050565b60006000198214156116585761165861165f565b5060010190565b634e487b7160e01b600052601160045260246000fd5b634e487b7160e01b600052604160045260246000fd5b6001600160e01b0319811681146107cd57600080fdfea264697066735822122038e169cb9f681c139596ba6e434fc0ef1759373485d7baf086c32ab45938503b64736f6c63430008000033",
  "immutableReferences": {},
  "source": "// SPDX-License-Identifier: MIT\n\npragma solidity ^0.8.0;\n\nimport \"@openzeppelin/contracts/token/ERC721/ERC721.sol\";\nimport \"@openzeppelin/contracts/utils/Counters.sol\";\nimport \"@openzeppelin/contracts/access/Ownable.sol\";\n\ncontract SmartContract is ERC721, Ownable {\n    using Counters for Counters.Counter;\n    using Strings for uint256;\n    Counters.Counter _tokenIds;\n    mapping(uint256 => string) _tokenURIs;\n\n    struct RenderToken {\n        uint256 id;\n        string uri;\n    }\n\n    constructor() ERC721(\"Smart Contract\", \"SC\") {}\n\n    function _setTokenURI(uint256 tokenId, string memory _tokenURI) internal {\n        _tokenURIs[tokenId] = _tokenURI;\n    }\n\n    function tokenURI(uint256 tokenId) \n      public \n      view \n      virtual \n      override \n      returns(string memory) {\n        require(_exists(tokenId));\n        string memory _tokenURI = _tokenURIs[tokenId];\n        return _tokenURI;\n    }\n\n    function getAllTokens() public view returns(RenderToken[] memory){\n        uint256 latestId = _tokenIds.current();\n        uint counter = 0;\n        RenderToken[] memory res = new RenderToken[](latestId);\n        for(uint256 i = 0; i < latestId; i ++){\n            if(_exists(counter)) {\n                string memory uri = tokenURI(counter);\n                res[counter] = RenderToken(counter, uri);\n            }\n            counter++;\n        }\n        return res;\n    }\n\n    function mint(address recipient, string memory uri) public returns(uint256){\n        uint256 newId = _tokenIds.current();\n        _mint(recipient, newId);\n        _setTokenURI(newId, uri);\n        _tokenIds.increment();\n        return newId;\n    }\n}\n",
  "sourcePath": "/home/egonisnoise/Desktop/DEV/NFTs/MintDApp/canvasNFTs/contracts/SmartContract.sol",
  "compiler": {
    "name": "solc",
    "version": "0.8.0+commit.c7dfd78e.Emscripten.clang"
  },
  "schemaVersion": "3.4.8",
  "updatedAt": "2022-10-04T18:01:26.248Z",
  "networkType": "ethereum",
  "devdoc": {
    "kind": "dev",
    "methods": {
      "approve(address,uint256)": {
        "details": "See {IERC721-approve}."
      },
      "balanceOf(address)": {
        "details": "See {IERC721-balanceOf}."
      },
      "getApproved(uint256)": {
        "details": "See {IERC721-getApproved}."
      },
      "isApprovedForAll(address,address)": {
        "details": "See {IERC721-isApprovedForAll}."
      },
      "name()": {
        "details": "See {IERC721Metadata-name}."
      },
      "owner()": {
        "details": "Returns the address of the current owner."
      },
      "ownerOf(uint256)": {
        "details": "See {IERC721-ownerOf}."
      },
      "renounceOwnership()": {
        "details": "Leaves the contract without owner. It will not be possible to call `onlyOwner` functions anymore. Can only be called by the current owner. NOTE: Renouncing ownership will leave the contract without an owner, thereby removing any functionality that is only available to the owner."
      },
      "safeTransferFrom(address,address,uint256)": {
        "details": "See {IERC721-safeTransferFrom}."
      },
      "safeTransferFrom(address,address,uint256,bytes)": {
        "details": "See {IERC721-safeTransferFrom}."
      },
      "setApprovalForAll(address,bool)": {
        "details": "See {IERC721-setApprovalForAll}."
      },
      "supportsInterface(bytes4)": {
        "details": "See {IERC165-supportsInterface}."
      },
      "symbol()": {
        "details": "See {IERC721Metadata-symbol}."
      },
      "tokenURI(uint256)": {
        "details": "See {IERC721Metadata-tokenURI}."
      },
      "transferFrom(address,address,uint256)": {
        "details": "See {IERC721-transferFrom}."
      },
      "transferOwnership(address)": {
        "details": "Transfers ownership of the contract to a new account (`newOwner`). Can only be called by the current owner."
      }
    },
    "version": 1
  },
  "userdoc": {
    "kind": "user",
    "methods": {},
    "version": 1
  }
}